{
  "contractName": "TicTacToe",
  "abi": [
    {
      "inputs": [],
      "payable": false,
      "stateMutability": "nonpayable",
      "type": "constructor"
    },
    {
      "constant": true,
      "inputs": [],
      "name": "balance",
      "outputs": [
        {
          "internalType": "uint256",
          "name": "",
          "type": "uint256"
        }
      ],
      "payable": false,
      "stateMutability": "view",
      "type": "function"
    },
    {
      "constant": true,
      "inputs": [
        {
          "internalType": "uint256",
          "name": "",
          "type": "uint256"
        },
        {
          "internalType": "uint256",
          "name": "",
          "type": "uint256"
        }
      ],
      "name": "board",
      "outputs": [
        {
          "internalType": "enum TicTacToe.states",
          "name": "",
          "type": "uint8"
        }
      ],
      "payable": false,
      "stateMutability": "view",
      "type": "function"
    },
    {
      "constant": true,
      "inputs": [],
      "name": "current_move",
      "outputs": [
        {
          "internalType": "uint256",
          "name": "",
          "type": "uint256"
        }
      ],
      "payable": false,
      "stateMutability": "view",
      "type": "function"
    },
    {
      "constant": true,
      "inputs": [],
      "name": "host",
      "outputs": [
        {
          "internalType": "address payable",
          "name": "",
          "type": "address"
        }
      ],
      "payable": false,
      "stateMutability": "view",
      "type": "function"
    },
    {
      "constant": true,
      "inputs": [],
      "name": "host_win",
      "outputs": [
        {
          "internalType": "uint256",
          "name": "",
          "type": "uint256"
        }
      ],
      "payable": false,
      "stateMutability": "view",
      "type": "function"
    },
    {
      "constant": true,
      "inputs": [],
      "name": "joiner",
      "outputs": [
        {
          "internalType": "address payable",
          "name": "",
          "type": "address"
        }
      ],
      "payable": false,
      "stateMutability": "view",
      "type": "function"
    },
    {
      "constant": true,
      "inputs": [],
      "name": "joiner_win",
      "outputs": [
        {
          "internalType": "uint256",
          "name": "",
          "type": "uint256"
        }
      ],
      "payable": false,
      "stateMutability": "view",
      "type": "function"
    },
    {
      "constant": true,
      "inputs": [],
      "name": "match_count",
      "outputs": [
        {
          "internalType": "uint256",
          "name": "",
          "type": "uint256"
        }
      ],
      "payable": false,
      "stateMutability": "view",
      "type": "function"
    },
    {
      "constant": true,
      "inputs": [],
      "name": "owner",
      "outputs": [
        {
          "internalType": "address payable",
          "name": "",
          "type": "address"
        }
      ],
      "payable": false,
      "stateMutability": "view",
      "type": "function"
    },
    {
      "constant": true,
      "inputs": [],
      "name": "state",
      "outputs": [
        {
          "internalType": "uint256",
          "name": "",
          "type": "uint256"
        }
      ],
      "payable": false,
      "stateMutability": "view",
      "type": "function"
    },
    {
      "constant": false,
      "inputs": [],
      "name": "start",
      "outputs": [],
      "payable": true,
      "stateMutability": "payable",
      "type": "function"
    },
    {
      "constant": false,
      "inputs": [
        {
          "internalType": "address",
          "name": "_host",
          "type": "address"
        }
      ],
      "name": "join",
      "outputs": [],
      "payable": true,
      "stateMutability": "payable",
      "type": "function"
    },
    {
      "constant": false,
      "inputs": [
        {
          "internalType": "uint256",
          "name": "y",
          "type": "uint256"
        },
        {
          "internalType": "uint256",
          "name": "x",
          "type": "uint256"
        }
      ],
      "name": "MakeMove",
      "outputs": [],
      "payable": false,
      "stateMutability": "nonpayable",
      "type": "function"
    },
    {
      "constant": true,
      "inputs": [],
      "name": "currentPlayerAddress",
      "outputs": [
        {
          "internalType": "address",
          "name": "",
          "type": "address"
        }
      ],
      "payable": false,
      "stateMutability": "view",
      "type": "function"
    },
    {
      "constant": true,
      "inputs": [],
      "name": "isGameOver",
      "outputs": [
        {
          "internalType": "bool",
          "name": "",
          "type": "bool"
        }
      ],
      "payable": false,
      "stateMutability": "view",
      "type": "function"
    },
    {
      "constant": true,
      "inputs": [],
      "name": "winner",
      "outputs": [
        {
          "internalType": "address payable",
          "name": "",
          "type": "address"
        }
      ],
      "payable": false,
      "stateMutability": "view",
      "type": "function"
    },
    {
      "constant": true,
      "inputs": [],
      "name": "stateToString",
      "outputs": [
        {
          "internalType": "string",
          "name": "",
          "type": "string"
        }
      ],
      "payable": false,
      "stateMutability": "view",
      "type": "function"
    },
    {
      "constant": false,
      "inputs": [],
      "name": "sendToOwner",
      "outputs": [],
      "payable": false,
      "stateMutability": "nonpayable",
      "type": "function"
    }
  ],
  "bytecode": "0x608060405260006003556000600455600060055560006006556000600755600060085534801561002e57600080fd5b50336000806101000a81548173ffffffffffffffffffffffffffffffffffffffff021916908373ffffffffffffffffffffffffffffffffffffffff1602179055506118b98061007e6000396000f3fe6080604052600436106101095760003560e01c8063a25dc6d711610095578063c19d93fb11610064578063c19d93fb14610438578063deda84d514610463578063dfbf53ae1461048e578063e6c05b1c146104e5578063f437bc591461053c57610109565b8063a25dc6d71461032e578063b69ef8a8146103be578063bdc3c106146103e9578063be9a65551461042e57610109565b80636620a935116100dc5780636620a935146102035780637d24e09f1461021a5780638086a92a146102455780638da5cb5b146102ac5780638ea20dd81461030357610109565b80630e04a7d81461010e57806328ffe6c81461013d5780633b58fb1914610181578063576a91be146101ac575b600080fd5b34801561011a57600080fd5b50610123610593565b604051808215151515815260200191505060405180910390f35b61017f6004803603602081101561015357600080fd5b81019080803573ffffffffffffffffffffffffffffffffffffffff1690602001909291905050506105d8565b005b34801561018d57600080fd5b506101966106e4565b6040518082815260200191505060405180910390f35b3480156101b857600080fd5b506101c16106ea565b604051808273ffffffffffffffffffffffffffffffffffffffff1673ffffffffffffffffffffffffffffffffffffffff16815260200191505060405180910390f35b34801561020f57600080fd5b50610218610710565b005b34801561022657600080fd5b5061022f6107e1565b6040518082815260200191505060405180910390f35b34801561025157600080fd5b506102886004803603604081101561026857600080fd5b8101908080359060200190929190803590602001909291905050506107e7565b6040518082600281111561029857fe5b60ff16815260200191505060405180910390f35b3480156102b857600080fd5b506102c161081d565b604051808273ffffffffffffffffffffffffffffffffffffffff1673ffffffffffffffffffffffffffffffffffffffff16815260200191505060405180910390f35b34801561030f57600080fd5b50610318610842565b6040518082815260200191505060405180910390f35b34801561033a57600080fd5b50610343610848565b6040518080602001828103825283818151815260200191508051906020019080838360005b83811015610383578082015181840152602081019050610368565b50505050905090810190601f1680156103b05780820380516001836020036101000a031916815260200191505b509250505060405180910390f35b3480156103ca57600080fd5b506103d3610a1b565b6040518082815260200191505060405180910390f35b3480156103f557600080fd5b5061042c6004803603604081101561040c57600080fd5b810190808035906020019092919080359060200190929190505050610a21565b005b610436610cac565b005b34801561044457600080fd5b5061044d610d33565b6040518082815260200191505060405180910390f35b34801561046f57600080fd5b50610478610d39565b6040518082815260200191505060405180910390f35b34801561049a57600080fd5b506104a3610d3f565b604051808273ffffffffffffffffffffffffffffffffffffffff1673ffffffffffffffffffffffffffffffffffffffff16815260200191505060405180910390f35b3480156104f157600080fd5b506104fa610de8565b604051808273ffffffffffffffffffffffffffffffffffffffff1673ffffffffffffffffffffffffffffffffffffffff16815260200191505060405180910390f35b34801561054857600080fd5b50610551610e55565b604051808273ffffffffffffffffffffffffffffffffffffffff1673ffffffffffffffffffffffffffffffffffffffff16815260200191505060405180910390f35b60006002600354146105a457600080fd5b600860045411806105d35750600060028111156105bd57fe5b6105c5610e7b565b60028111156105d057fe5b14155b905090565b600160009054906101000a900473ffffffffffffffffffffffffffffffffffffffff1673ffffffffffffffffffffffffffffffffffffffff168173ffffffffffffffffffffffffffffffffffffffff161461063257600080fd5b600134101561064057600080fd5b60016003541461064f57600080fd5b3373ffffffffffffffffffffffffffffffffffffffff168173ffffffffffffffffffffffffffffffffffffffff16141561068857600080fd5b33600260006101000a81548173ffffffffffffffffffffffffffffffffffffffff021916908373ffffffffffffffffffffffffffffffffffffffff16021790555034600560008282540192505081905550600260038190555050565b60085481565b600260009054906101000a900473ffffffffffffffffffffffffffffffffffffffff1681565b6000809054906101000a900473ffffffffffffffffffffffffffffffffffffffff1673ffffffffffffffffffffffffffffffffffffffff163373ffffffffffffffffffffffffffffffffffffffff161461076957600080fd5b600060055411156107df576000809054906101000a900473ffffffffffffffffffffffffffffffffffffffff1673ffffffffffffffffffffffffffffffffffffffff166108fc6005549081150290604051600060405180830381858888f193505050501580156107dd573d6000803e3d6000fd5b505b565b60065481565b600982600381106107f457fe5b01816003811061080057fe5b60209182820401919006915091509054906101000a900460ff1681565b6000809054906101000a900473ffffffffffffffffffffffffffffffffffffffff1681565b60075481565b60606108546000610fdd565b61085e6001610fdd565b6108686002610fdd565b60405160200180807f0a0000000000000000000000000000000000000000000000000000000000000081525060010184805190602001908083835b602083106108c657805182526020820191506020810190506020830392506108a3565b6001836020036101000a038019825116818451168082178552505050505050905001807f0a0000000000000000000000000000000000000000000000000000000000000081525060010183805190602001908083835b6020831061093f578051825260208201915060208101905060208303925061091c565b6001836020036101000a038019825116818451168082178552505050505050905001807f0a0000000000000000000000000000000000000000000000000000000000000081525060010182805190602001908083835b602083106109b85780518252602082019150602081019050602083039250610995565b6001836020036101000a038019825116818451168082178552505050505050905001807f0a000000000000000000000000000000000000000000000000000000000000008152506001019350505050604051602081830303815290604052905090565b60055481565b600260035414610a3057600080fd5b600160009054906101000a900473ffffffffffffffffffffffffffffffffffffffff1673ffffffffffffffffffffffffffffffffffffffff163373ffffffffffffffffffffffffffffffffffffffff161480610ad95750600260009054906101000a900473ffffffffffffffffffffffffffffffffffffffff1673ffffffffffffffffffffffffffffffffffffffff163373ffffffffffffffffffffffffffffffffffffffff16145b610ae257600080fd5b610aea610593565b158015610b295750610afa610de8565b73ffffffffffffffffffffffffffffffffffffffff163373ffffffffffffffffffffffffffffffffffffffff16145b610b3257600080fd5b610b3c8183611165565b610b4557600080fd5b60006002811115610b5257fe5b60098260038110610b5f57fe5b018360038110610b6b57fe5b602091828204019190069054906101000a900460ff166002811115610b8c57fe5b14610b9657600080fd5b600260009054906101000a900473ffffffffffffffffffffffffffffffffffffffff1673ffffffffffffffffffffffffffffffffffffffff16610bd7610de8565b73ffffffffffffffffffffffffffffffffffffffff161415610c3b57600160098260038110610c0257fe5b018360038110610c0e57fe5b602091828204019190066101000a81548160ff02191690836002811115610c3157fe5b0217905550610c7f565b600260098260038110610c4a57fe5b018360038110610c5657fe5b602091828204019190066101000a81548160ff02191690836002811115610c7957fe5b02179055505b600160045401600481905550610c93610593565b15610ca85760038081905550610ca7611198565b5b5050565b600060035414610cbb57600080fd5b6001341015610cc957600080fd5b600060055414610cd857600080fd5b33600160006101000a81548173ffffffffffffffffffffffffffffffffffffffff021916908373ffffffffffffffffffffffffffffffffffffffff160217905550346005600082825401925050819055506001600381905550565b60035481565b60045481565b600080610d4a610e7b565b905060016002811115610d5957fe5b816002811115610d6557fe5b1415610d9657600260009054906101000a900473ffffffffffffffffffffffffffffffffffffffff16915050610de5565b600280811115610da257fe5b816002811115610dae57fe5b1415610ddf57600160009054906101000a900473ffffffffffffffffffffffffffffffffffffffff16915050610de5565b60009150505b90565b60008060026006546004540181610dfb57fe5b061415610e2c57600260009054906101000a900473ffffffffffffffffffffffffffffffffffffffff169050610e52565b600160009054906101000a900473ffffffffffffffffffffffffffffffffffffffff1690505b90565b600160009054906101000a900473ffffffffffffffffffffffffffffffffffffffff1681565b600080600090505b6003811015610ee05760006002811115610e9957fe5b610eaa82600084600186600261143e565b6002811115610eb557fe5b14610ed357610ecb81600083600185600261143e565b915050610fda565b8080600101915050610e83565b5060008090505b6003811015610f445760006002811115610efd57fe5b610f0e60008360018560028761143e565b6002811115610f1957fe5b14610f3757610f2f60008260018460028661143e565b915050610fda565b8080600101915050610ee7565b5060006002811115610f5257fe5b610f6360008060018060028061143e565b6002811115610f6e57fe5b14610f8b57610f8460008060018060028061143e565b9050610fda565b60006002811115610f9857fe5b610fab600060026001806002600061143e565b6002811115610fb657fe5b14610fd557610fce600060026001806002600061143e565b9050610fda565b600090505b90565b6060610fea6000836115cc565b610ff56001846115cc565b6110006002856115cc565b6040516020018084805190602001908083835b602083106110365780518252602082019150602081019050602083039250611013565b6001836020036101000a038019825116818451168082178552505050505050905001807f7c0000000000000000000000000000000000000000000000000000000000000081525060010183805190602001908083835b602083106110af578051825260208201915060208101905060208303925061108c565b6001836020036101000a038019825116818451168082178552505050505050905001807f7c0000000000000000000000000000000000000000000000000000000000000081525060010182805190602001908083835b602083106111285780518252602082019150602081019050602083039250611105565b6001836020036101000a03801982511681845116808217855250505050505090500193505050506040516020818303038152906040529050919050565b60008083101580156111775750600383105b8015611184575060008210155b80156111905750600382105b905092915050565b60038054146111a657600080fd5b6000600554116111b557600080fd5b600160009054906101000a900473ffffffffffffffffffffffffffffffffffffffff1673ffffffffffffffffffffffffffffffffffffffff166111f6610d3f565b73ffffffffffffffffffffffffffffffffffffffff1614156112235760016007540160078190555061128e565b600260009054906101000a900473ffffffffffffffffffffffffffffffffffffffff1673ffffffffffffffffffffffffffffffffffffffff16611264610d3f565b73ffffffffffffffffffffffffffffffffffffffff16141561128d576001600854016008819055505b5b60016006540160068190555060046006541415611423576007546008541415611320576000809054906101000a900473ffffffffffffffffffffffffffffffffffffffff1673ffffffffffffffffffffffffffffffffffffffff166108fc6005549081150290604051600060405180830381858888f1935050505015801561131a573d6000803e3d6000fd5b50611416565b600754600854111561139c57600260009054906101000a900473ffffffffffffffffffffffffffffffffffffffff1673ffffffffffffffffffffffffffffffffffffffff166108fc6005549081150290604051600060405180830381858888f19350505050158015611396573d6000803e3d6000fd5b50611415565b600854600754111561141457600160009054906101000a900473ffffffffffffffffffffffffffffffffffffffff1673ffffffffffffffffffffffffffffffffffffffff166108fc6005549081150290604051600060405180830381858888f19350505050158015611412573d6000803e3d6000fd5b505b5b5b61141e6117bd565b61143c565b6002600381905550600060048190555061143b611805565b5b565b600080600281111561144c57fe5b6009886003811061145957fe5b01876003811061146557fe5b602091828204019190069054906101000a900460ff16600281111561148657fe5b1415801561150557506009856003811061149c57fe5b0184600381106114a857fe5b602091828204019190069054906101000a900460ff1660028111156114c957fe5b600988600381106114d657fe5b0187600381106114e257fe5b602091828204019190069054906101000a900460ff16600281111561150357fe5b145b801561158257506009836003811061151957fe5b01826003811061152557fe5b602091828204019190069054906101000a900460ff16600281111561154657fe5b6009866003811061155357fe5b01856003811061155f57fe5b602091828204019190069054906101000a900460ff16600281111561158057fe5b145b156115bd576009876003811061159457fe5b0186600381106115a057fe5b602091828204019190069054906101000a900460ff1690506115c2565b600090505b9695505050505050565b60606115d88383611165565b6115e157600080fd5b600060028111156115ee57fe5b600984600381106115fb57fe5b01836003811061160757fe5b602091828204019190069054906101000a900460ff16600281111561162857fe5b141561166b576040518060400160405280600181526020017f200000000000000000000000000000000000000000000000000000000000000081525090506117b7565b6001600281111561167857fe5b6009846003811061168557fe5b01836003811061169157fe5b602091828204019190069054906101000a900460ff1660028111156116b257fe5b14156116f5576040518060400160405280600181526020017f580000000000000000000000000000000000000000000000000000000000000081525090506117b7565b60028081111561170157fe5b6009846003811061170e57fe5b01836003811061171a57fe5b602091828204019190069054906101000a900460ff16600281111561173b57fe5b141561177e576040518060400160405280600181526020017f4f0000000000000000000000000000000000000000000000000000000000000081525090506117b7565b6040518060400160405280600181526020017f200000000000000000000000000000000000000000000000000000000000000081525090505b92915050565b60038054146117cb57600080fd5b600060038190555060006005819055506000600481905550600060078190555060006008819055506000600681905550611803611805565b565b60008090505b60038110156118815760008090505b60038110156118735760006009836003811061183257fe5b01826003811061183e57fe5b602091828204019190066101000a81548160ff0219169083600281111561186157fe5b0217905550808060010191505061181a565b50808060010191505061180b565b5056fea265627a7a72315820a0bf72232b2249d3c730b6aacf4546153ed4db80aeaf6fc30014ca7643b6236d64736f6c634300050c0032",
  "source": "pragma solidity >=0.4.21 <0.6.0;\n\ncontract TicTacToe {\n    // Address of the two players and the owner\n    address payable public owner;\n    \n    address payable public host;\n    address payable public joiner;\n    uint public state=0;\n    uint public current_move = 0; \n    uint public balance=0;\n    uint public match_count=0;\n    uint public host_win=0;\n    uint public joiner_win=0;\n    enum states {E, X, O}\n    states[3][3] public board;\n    \n\n    constructor() public {\n        owner = msg.sender;\n    }\n    \n    // Simple State Machine,\n    // State 0: Game is not initialise\n    // State 1: Host has joined\n    // State 2: Challenger has joined \n    // State 3: Game Over\n\n    function start() public payable {\n        require(state==0);\n        require(msg.value >= 1);\n        require(balance==0);\n        \n        host = msg.sender;\n        balance += msg.value;\n        state = 1;\n    }\n    \n    function join(address _host) public payable {\n        require(_host==host);\n        require(msg.value >= 1);\n        require(state==1);\n        require(_host!=msg.sender);  // Making sure that host is not trying to play with himself\n        \n        joiner = msg.sender;\n        balance += msg.value;\n        state = 2;\n    }\n    \n    // constructor(address _joiner) public {\n    //     require(_joiner != address(0));\n\n    //     host = msg.sender;\n    //     joiner = _joiner;\n    // }\n    \n    // Checks to be performed before the transaction is allowed to make a change to the board\n    // - Make sure the host and Challenger have joined the game\n    // - The sender is a player of the game\n    // - The game is not over and it is their turn \n    // - The arguments are within bounds of the board\n    // - If the specified block on the board is empty \n    function MakeMove(uint y, uint x) public {\n        require (state==2);\n        require (msg.sender == host || msg.sender == joiner);\n        require (!isGameOver() && msg.sender == currentPlayerAddress());\n        require (positionCheck(x, y));\n        require (board[x][y] == states.E);\n\n        // TODO \n        if(currentPlayerAddress() == joiner) {\n            board[x][y] = states.X;\n        }\n        else {\n            board[x][y] = states.O;\n        }\n\n        current_move = current_move+1;\n        \n        if(isGameOver()){\n            state=3;\n            EndGame();\n        }\n    }\n\n    // Utility function to make sure we never check positions outside the board\n    function positionCheck(uint xpos, uint ypos) private pure returns (bool) {\n        return (xpos >= 0 && xpos < 3 && ypos >= 0 && ypos < 3);\n    }\n\n    // Match 1 & 3: Joiner plays first\n    // Match 2 & 4: Host plays first\n    function currentPlayerAddress() public view returns (address) {\n        if ((current_move+match_count) % 2 == 0) {\n            return joiner;\n        }\n        else {\n            return host;\n        }\n    }\n\n    // Game is over when 9 moves have been made or when one of the player wins\n    function isGameOver() public view returns (bool) {\n        require(state==2);\n        return (current_move > 8 || winningPlayerShape() != states.E); \n    }\n\n    // After the game is over sendin the money to the winner\n    function EndGame() private {\n        require(state==3);\n        require(balance>0);\n        \n        if(winner() == host){\n            host_win = host_win+1;\n        }\n        else if(winner() == joiner){\n            joiner_win = joiner_win+1;\n        }\n        match_count=match_count+1;\n        \n        if(match_count==4){\n            if( joiner_win == host_win){\n                owner.transfer(balance);\n            }\n            else if(joiner_win > host_win){\n                joiner.transfer(balance);\n            }\n            else if(host_win > joiner_win){\n                host.transfer(balance);\n            }\n            reset();\n        }\n        else{\n            state=2;\n            // balance=0;\n            current_move=0;\n            // host_win=0;\n            // joiner_win=0;\n            // match_count=0;\n            reset_board();\n        }\n    }\n    \n    // We have to make sure that the money has been transferred to the winner or the owner\n    function reset() private {\n        require(state==3);\n        \n        state=0;\n        balance=0;\n        current_move=0;\n        host_win=0;\n        joiner_win=0;\n        match_count=0;\n        reset_board();\n    }\n    \n    //resets board to default values\n    function reset_board() private {\n        for(uint r=0; r<3; r++){\n            for(uint s=0; s<3; s++){\n                board[r][s]=states.E;\n            }\n        }\n    }\n    \n    // Utility function \n    function check(uint r1, uint c1, uint r2, uint c2, uint r3, uint c3)\n    private view returns (states) {\n        if(board[r1][c1]!=states.E && board[r1][c1]==board[r2][c2] && board[r2][c2]==board[r3][c3])\n            return board[r1][c1];\n        else\n            return states.E;\n    }\n\n    // Function to check if the board has a winner and returns the winning shape\n    function winningPlayerShape() private view returns (states) {\n        // Check rows\n        for(uint r=0; r<3; r++){\n            if(check(r,0,r,1,r,2) != states.E)\n                return check(r,0,r,1,r,2);\n        }\n\n        // Check coloumns\n        for(uint r=0; r<3; r++){\n            if(check(0,r,1,r,2,r)!=states.E)\n                return check(0,r,1,r,2,r);\n        }\n\n        // Check diagonals\n\n        if(check(0,0,1,1,2,2) != states.E)\n            return check(0,0,1,1,2,2);\n        if(check(0,2,1,1,2,0) != states.E)\n            return check(0,2,1,1,2,0);\n\n        return states.E;\n    }\n\n    // Function for the outside world to see who the winner is \n    function winner() public view returns (address payable) {\n        states winning_shape = winningPlayerShape();\n        if(winning_shape == states.X){\n            return joiner;\n        }\n        else if(winning_shape == states.O) {\n            return host;\n        }\n        \n        return address(0);\n    }\n    \n    // Drawing the board\n    \n    function stateToString() public view returns (string memory) {\n        return string(abi.encodePacked(\"\\n\",\n            colToString(0), \"\\n\",\n            colToString(1), \"\\n\",\n            colToString(2), \"\\n\"\n        ));\n    }\n    \n    function colToString(uint pos) private view returns (string memory) {\n        return string(abi.encodePacked(squareToString(0, pos), \"|\", squareToString(1, pos), \"|\", squareToString(2, pos)));\n    }\n    \n    function squareToString(uint xpos, uint ypos) private view returns (string memory){\n        require (positionCheck(xpos, ypos));\n        \n        if(board[xpos][ypos] == states.E){\n            return \" \";\n        }\n        else if(board[xpos][ypos] == states.X){\n            return \"X\";\n        }\n        else if(board[xpos][ypos] == states.O){\n            return \"O\";\n        }\n        return \" \";\n    }\n\n    function sendToOwner() public {\n        require(msg.sender==owner);\n        if(balance > 0){\n            owner.transfer(balance);\n        }\n    }\n}",
  "sourcePath": "/home/tyrion/projects/Blockchain/TicTacToe/contracts/TicTacToe.sol",
  "compiler": {
    "name": "solc",
    "version": "0.5.12+commit.7709ece9.Emscripten.clang"
  },
  "schemaVersion": "3.0.19",
  "updatedAt": "2019-11-15T07:42:51.991Z",
  "networkType": "ethereum",
  "devdoc": {
    "methods": {}
  },
  "userdoc": {
    "methods": {}
  }
}