{
  "contractName": "TicTacToe",
  "abi": [
    {
      "inputs": [],
      "payable": false,
      "stateMutability": "nonpayable",
      "type": "constructor"
    },
    {
      "constant": true,
      "inputs": [
        {
          "internalType": "uint8",
          "name": "",
          "type": "uint8"
        }
      ],
      "name": "games",
      "outputs": [
        {
          "internalType": "address payable",
          "name": "host",
          "type": "address"
        },
        {
          "internalType": "address payable",
          "name": "joiner",
          "type": "address"
        },
        {
          "internalType": "uint8",
          "name": "state",
          "type": "uint8"
        },
        {
          "internalType": "uint8",
          "name": "current_move",
          "type": "uint8"
        },
        {
          "internalType": "uint256",
          "name": "balance",
          "type": "uint256"
        },
        {
          "internalType": "uint8",
          "name": "match_count",
          "type": "uint8"
        },
        {
          "internalType": "uint8",
          "name": "host_win",
          "type": "uint8"
        },
        {
          "internalType": "uint8",
          "name": "joiner_win",
          "type": "uint8"
        }
      ],
      "payable": false,
      "stateMutability": "view",
      "type": "function"
    },
    {
      "constant": true,
      "inputs": [],
      "name": "owner",
      "outputs": [
        {
          "internalType": "address payable",
          "name": "",
          "type": "address"
        }
      ],
      "payable": false,
      "stateMutability": "view",
      "type": "function"
    },
    {
      "constant": false,
      "inputs": [
        {
          "internalType": "uint8",
          "name": "id",
          "type": "uint8"
        }
      ],
      "name": "create",
      "outputs": [],
      "payable": true,
      "stateMutability": "payable",
      "type": "function"
    },
    {
      "constant": false,
      "inputs": [
        {
          "internalType": "uint8",
          "name": "id",
          "type": "uint8"
        }
      ],
      "name": "join",
      "outputs": [],
      "payable": true,
      "stateMutability": "payable",
      "type": "function"
    },
    {
      "constant": false,
      "inputs": [
        {
          "internalType": "uint8",
          "name": "id",
          "type": "uint8"
        },
        {
          "internalType": "uint8",
          "name": "y",
          "type": "uint8"
        },
        {
          "internalType": "uint8",
          "name": "x",
          "type": "uint8"
        }
      ],
      "name": "MakeMove",
      "outputs": [],
      "payable": false,
      "stateMutability": "nonpayable",
      "type": "function"
    },
    {
      "constant": true,
      "inputs": [
        {
          "internalType": "uint8",
          "name": "id",
          "type": "uint8"
        }
      ],
      "name": "currentPlayerAddress",
      "outputs": [
        {
          "internalType": "address",
          "name": "",
          "type": "address"
        }
      ],
      "payable": false,
      "stateMutability": "view",
      "type": "function"
    },
    {
      "constant": true,
      "inputs": [
        {
          "internalType": "uint8",
          "name": "id",
          "type": "uint8"
        }
      ],
      "name": "isMatchOver",
      "outputs": [
        {
          "internalType": "bool",
          "name": "",
          "type": "bool"
        }
      ],
      "payable": false,
      "stateMutability": "view",
      "type": "function"
    },
    {
      "constant": true,
      "inputs": [
        {
          "internalType": "uint8",
          "name": "id",
          "type": "uint8"
        }
      ],
      "name": "winner",
      "outputs": [
        {
          "internalType": "address payable",
          "name": "",
          "type": "address"
        }
      ],
      "payable": false,
      "stateMutability": "view",
      "type": "function"
    },
    {
      "constant": true,
      "inputs": [
        {
          "internalType": "uint8",
          "name": "id",
          "type": "uint8"
        }
      ],
      "name": "stateToString",
      "outputs": [
        {
          "internalType": "string",
          "name": "",
          "type": "string"
        }
      ],
      "payable": false,
      "stateMutability": "view",
      "type": "function"
    }
  ],
  "bytecode": "0x608060405234801561001057600080fd5b50336000806101000a81548173ffffffffffffffffffffffffffffffffffffffff021916908373ffffffffffffffffffffffffffffffffffffffff160217905550612759806100606000396000f3fe6080604052600436106100865760003560e01c80639881ae84116100595780639881ae84146102b1578063b60bdd8814610307578063c37d904414610385578063cb3e9b84146103b6578063d15e98ee146103e757610086565b80630fad2a5b1461008b578063510ae15014610184578063755cc12b146102025780638da5cb5b1461025a575b600080fd5b34801561009757600080fd5b506100c7600480360360208110156100ae57600080fd5b81019080803560ff16906020019092919050505061049e565b604051808973ffffffffffffffffffffffffffffffffffffffff1673ffffffffffffffffffffffffffffffffffffffff1681526020018873ffffffffffffffffffffffffffffffffffffffff1673ffffffffffffffffffffffffffffffffffffffff1681526020018760ff1660ff1681526020018660ff1660ff1681526020018581526020018460ff1660ff1681526020018360ff1660ff1681526020018260ff1660ff1681526020019850505050505050505060405180910390f35b34801561019057600080fd5b506101c0600480360360208110156101a757600080fd5b81019080803560ff169060200190929190505050610567565b604051808273ffffffffffffffffffffffffffffffffffffffff1673ffffffffffffffffffffffffffffffffffffffff16815260200191505060405180910390f35b34801561020e57600080fd5b506102586004803603606081101561022557600080fd5b81019080803560ff169060200190929190803560ff169060200190929190803560ff16906020019092919050505061065e565b005b34801561026657600080fd5b5061026f610c69565b604051808273ffffffffffffffffffffffffffffffffffffffff1673ffffffffffffffffffffffffffffffffffffffff16815260200191505060405180910390f35b3480156102bd57600080fd5b506102ed600480360360208110156102d457600080fd5b81019080803560ff169060200190929190505050610c8e565b604051808215151515815260200191505060405180910390f35b34801561031357600080fd5b506103436004803603602081101561032a57600080fd5b81019080803560ff169060200190929190505050610d93565b604051808273ffffffffffffffffffffffffffffffffffffffff1673ffffffffffffffffffffffffffffffffffffffff16815260200191505060405180910390f35b6103b46004803603602081101561039b57600080fd5b81019080803560ff169060200190929190505050610e73565b005b6103e5600480360360208110156103cc57600080fd5b81019080803560ff1690602001909291905050506110e6565b005b3480156103f357600080fd5b506104236004803603602081101561040a57600080fd5b81019080803560ff169060200190929190505050611406565b6040518080602001828103825283818151815260200191508051906020019080838360005b83811015610463578082015181840152602081019050610448565b50505050905090810190601f1680156104905780820380516001836020036101000a031916815260200191505b509250505060405180910390f35b60016020528060005260406000206000915090508060000160009054906101000a900473ffffffffffffffffffffffffffffffffffffffff16908060010160009054906101000a900473ffffffffffffffffffffffffffffffffffffffff16908060010160149054906101000a900460ff16908060010160159054906101000a900460ff16908060020154908060030160009054906101000a900460ff16908060030160019054906101000a900460ff16908060030160029054906101000a900460ff16905088565b6000806002600160008560ff1660ff16815260200190815260200160002060030160009054906101000a900460ff16600160008660ff1660ff16815260200190815260200160002060010160159054906101000a900460ff160160ff16816105cb57fe5b0660ff16141561061957600160008360ff1660ff16815260200190815260200160002060010160009054906101000a900473ffffffffffffffffffffffffffffffffffffffff169050610659565b600160008360ff1660ff16815260200190815260200160002060000160009054906101000a900473ffffffffffffffffffffffffffffffffffffffff1690505b919050565b6002600160008560ff1660ff16815260200190815260200160002060010160149054906101000a900460ff1660ff1614610700576040517f08c379a000000000000000000000000000000000000000000000000000000000815260040180806020018281038252601e8152602001807f506c6179657220686173206e6f74206a6f696e6564207468652067616d65000081525060200191505060405180910390fd5b600160008460ff1660ff16815260200190815260200160002060000160009054906101000a900473ffffffffffffffffffffffffffffffffffffffff1673ffffffffffffffffffffffffffffffffffffffff163373ffffffffffffffffffffffffffffffffffffffff1614806107dd5750600160008460ff1660ff16815260200190815260200160002060010160009054906101000a900473ffffffffffffffffffffffffffffffffffffffff1673ffffffffffffffffffffffffffffffffffffffff163373ffffffffffffffffffffffffffffffffffffffff16145b610832576040517f08c379a000000000000000000000000000000000000000000000000000000000815260040180806020018281038252602b8152602001806126fa602b913960400191505060405180910390fd5b61083b83610c8e565b156108ae576040517f08c379a000000000000000000000000000000000000000000000000000000000815260040180806020018281038252600f8152602001807f576f6e277420636f6d652068657265000000000000000000000000000000000081525060200191505060405180910390fd5b6108b783610567565b73ffffffffffffffffffffffffffffffffffffffff163373ffffffffffffffffffffffffffffffffffffffff1614610957576040517f08c379a00000000000000000000000000000000000000000000000000000000081526004018080602001828103825260198152602001807f506c65617365207761697420666f7220796f7572207475726e0000000000000081525060200191505060405180910390fd5b610961818361158e565b6109b6576040517f08c379a00000000000000000000000000000000000000000000000000000000081526004018080602001828103825260288152602001806126d26028913960400191505060405180910390fd5b600060028111156109c357fe5b600160008560ff1660ff1681526020019081526020016000206004018260ff16600381106109ed57fe5b018360ff16600381106109fc57fe5b602091828204019190069054906101000a900460ff166002811115610a1d57fe5b14610a73576040517f08c379a00000000000000000000000000000000000000000000000000000000081526004018080602001828103825260258152602001806126ad6025913960400191505060405180910390fd5b600160008460ff1660ff16815260200190815260200160002060010160009054906101000a900473ffffffffffffffffffffffffffffffffffffffff1673ffffffffffffffffffffffffffffffffffffffff16610acf84610567565b73ffffffffffffffffffffffffffffffffffffffff161415610b525760018060008560ff1660ff1681526020019081526020016000206004018260ff1660038110610b1657fe5b018360ff1660038110610b2557fe5b602091828204019190066101000a81548160ff02191690836002811115610b4857fe5b0217905550610bb6565b6002600160008560ff1660ff1681526020019081526020016000206004018260ff1660038110610b7e57fe5b018360ff1660038110610b8d57fe5b602091828204019190066101000a81548160ff02191690836002811115610bb057fe5b02179055505b60018060008560ff1660ff16815260200190815260200160002060010160159054906101000a900460ff1601600160008560ff1660ff16815260200190815260200160002060010160156101000a81548160ff021916908360ff160217905550610c1f83610c8e565b15610c64576003600160008560ff1660ff16815260200190815260200160002060010160146101000a81548160ff021916908360ff160217905550610c63836115cd565b5b505050565b6000809054906101000a900473ffffffffffffffffffffffffffffffffffffffff1681565b60006002600160008460ff1660ff16815260200190815260200160002060010160149054906101000a900460ff1660ff1614610d32576040517f08c379a000000000000000000000000000000000000000000000000000000000815260040180806020018281038252601f8152602001807f456e737572652074686174206d617463682068617320636f6d706c657465640081525060200191505060405180910390fd5b6008600160008460ff1660ff16815260200190815260200160002060010160159054906101000a900460ff1660ff161180610d8c575060006002811115610d7557fe5b610d7e83611d40565b6002811115610d8957fe5b14155b9050919050565b600080610d9f83611d40565b905060016002811115610dae57fe5b816002811115610dba57fe5b1415610e0557600160008460ff1660ff16815260200190815260200160002060010160009054906101000a900473ffffffffffffffffffffffffffffffffffffffff16915050610e6e565b600280811115610e1157fe5b816002811115610e1d57fe5b1415610e6857600160008460ff1660ff16815260200190815260200160002060000160009054906101000a900473ffffffffffffffffffffffffffffffffffffffff16915050610e6e565b60009150505b919050565b6000600160008360ff1660ff16815260200190815260200160002060010160149054906101000a900460ff1660ff1614610f15576040517f08c379a00000000000000000000000000000000000000000000000000000000081526004018080602001828103825260168152602001807f47616d6520494420616c7265616479206578697374730000000000000000000081525060200191505060405180910390fd5b6001341015610f8c576040517f08c379a00000000000000000000000000000000000000000000000000000000081526004018080602001828103825260178152602001807f53656e642061206d696e696d756d206f6620312057656900000000000000000081525060200191505060405180910390fd5b6000809054906101000a900473ffffffffffffffffffffffffffffffffffffffff1673ffffffffffffffffffffffffffffffffffffffff163373ffffffffffffffffffffffffffffffffffffffff161415611032576040517f08c379a000000000000000000000000000000000000000000000000000000000815260040180806020018281038252602d815260200180612651602d913960400191505060405180910390fd5b33600160008360ff1660ff16815260200190815260200160002060000160006101000a81548173ffffffffffffffffffffffffffffffffffffffff021916908373ffffffffffffffffffffffffffffffffffffffff16021790555034600160008360ff1660ff1681526020019081526020016000206002018190555060018060008360ff1660ff16815260200190815260200160002060010160146101000a81548160ff021916908360ff16021790555050565b60018060008360ff1660ff16815260200190815260200160002060010160149054906101000a900460ff1660ff161461116a576040517f08c379a000000000000000000000000000000000000000000000000000000000815260040180806020018281038252602f81526020018061267e602f913960400191505060405180910390fd5b60013410156111e1576040517f08c379a00000000000000000000000000000000000000000000000000000000081526004018080602001828103825260178152602001807f53656e642061206d696e696d756d206f6620312057656900000000000000000081525060200191505060405180910390fd5b3373ffffffffffffffffffffffffffffffffffffffff166000809054906101000a900473ffffffffffffffffffffffffffffffffffffffff1673ffffffffffffffffffffffffffffffffffffffff161415611287576040517f08c379a000000000000000000000000000000000000000000000000000000000815260040180806020018281038252602d815260200180612651602d913960400191505060405180910390fd5b3373ffffffffffffffffffffffffffffffffffffffff16600160008360ff1660ff16815260200190815260200160002060000160009054906101000a900473ffffffffffffffffffffffffffffffffffffffff1673ffffffffffffffffffffffffffffffffffffffff161415611348576040517f08c379a00000000000000000000000000000000000000000000000000000000081526004018080602001828103825260388152602001806125e86038913960400191505060405180910390fd5b33600160008360ff1660ff16815260200190815260200160002060010160006101000a81548173ffffffffffffffffffffffffffffffffffffffff021916908373ffffffffffffffffffffffffffffffffffffffff16021790555034600160008360ff1660ff168152602001908152602001600020600201600082825401925050819055506002600160008360ff1660ff16815260200190815260200160002060010160146101000a81548160ff021916908360ff16021790555050565b6060611413826000611eb2565b61141e836001611eb2565b611429846002611eb2565b6040516020018084805190602001908083835b6020831061145f578051825260208201915060208101905060208303925061143c565b6001836020036101000a038019825116818451168082178552505050505050905001807f7c0000000000000000000000000000000000000000000000000000000000000081525060010183805190602001908083835b602083106114d857805182526020820191506020810190506020830392506114b5565b6001836020036101000a038019825116818451168082178552505050505050905001807f7c0000000000000000000000000000000000000000000000000000000000000081525060010182805190602001908083835b60208310611551578051825260208201915060208101905060208303925061152e565b6001836020036101000a03801982511681845116808217855250505050505090500193505050506040516020818303038152906040529050919050565b6000808360ff16101580156115a6575060038360ff16105b80156115b6575060008260ff1610155b80156115c5575060038260ff16105b905092915050565b6003600160008360ff1660ff16815260200190815260200160002060010160149054906101000a900460ff1660ff161461166f576040517f08c379a000000000000000000000000000000000000000000000000000000000815260040180806020018281038252601a8152602001807f456e737572652074686174207468652067616d6520656e64656400000000000081525060200191505060405180910390fd5b6000600160008360ff1660ff16815260200190815260200160002060020154116116e4576040517f08c379a00000000000000000000000000000000000000000000000000000000081526004018080602001828103825260318152602001806126206031913960400191505060405180910390fd5b600160008260ff1660ff16815260200190815260200160002060000160009054906101000a900473ffffffffffffffffffffffffffffffffffffffff1673ffffffffffffffffffffffffffffffffffffffff1661174082610d93565b73ffffffffffffffffffffffffffffffffffffffff1614156117c15760018060008360ff1660ff16815260200190815260200160002060030160019054906101000a900460ff1601600160008360ff1660ff16815260200190815260200160002060030160016101000a81548160ff021916908360ff16021790555061189b565b600160008260ff1660ff16815260200190815260200160002060010160009054906101000a900473ffffffffffffffffffffffffffffffffffffffff1673ffffffffffffffffffffffffffffffffffffffff1661181d82610d93565b73ffffffffffffffffffffffffffffffffffffffff16141561189a5760018060008360ff1660ff16815260200190815260200160002060030160029054906101000a900460ff1601600160008360ff1660ff16815260200190815260200160002060030160026101000a81548160ff021916908360ff1602179055505b5b60018060008360ff1660ff16815260200190815260200160002060030160009054906101000a900460ff1601600160008360ff1660ff16815260200190815260200160002060030160006101000a81548160ff021916908360ff1602179055506004600160008360ff1660ff16815260200190815260200160002060030160009054906101000a900460ff1660ff161415611c2d57600160008260ff1660ff16815260200190815260200160002060030160019054906101000a900460ff1660ff16600160008360ff1660ff16815260200190815260200160002060030160029054906101000a900460ff1660ff161415611a19576000809054906101000a900473ffffffffffffffffffffffffffffffffffffffff1673ffffffffffffffffffffffffffffffffffffffff166108fc600160008460ff1660ff168152602001908152602001600020600201549081150290604051600060405180830381858888f19350505050158015611a13573d6000803e3d6000fd5b50611c1f565b600160008260ff1660ff16815260200190815260200160002060030160019054906101000a900460ff1660ff16600160008360ff1660ff16815260200190815260200160002060030160029054906101000a900460ff1660ff161115611b1d57600160008260ff1660ff16815260200190815260200160002060010160009054906101000a900473ffffffffffffffffffffffffffffffffffffffff1673ffffffffffffffffffffffffffffffffffffffff166108fc600160008460ff1660ff168152602001908152602001600020600201549081150290604051600060405180830381858888f19350505050158015611b17573d6000803e3d6000fd5b50611c1e565b600160008260ff1660ff16815260200190815260200160002060030160029054906101000a900460ff1660ff16600160008360ff1660ff16815260200190815260200160002060030160019054906101000a900460ff1660ff161115611c1d57600160008260ff1660ff16815260200190815260200160002060000160009054906101000a900473ffffffffffffffffffffffffffffffffffffffff1673ffffffffffffffffffffffffffffffffffffffff166108fc600160008460ff1660ff168152602001908152602001600020600201549081150290604051600060405180830381858888f19350505050158015611c1b573d6000803e3d6000fd5b505b5b5b611c288161203e565b611d3d565b6002600160008360ff1660ff16815260200190815260200160002060010160146101000a81548160ff021916908360ff1602179055506000600160008360ff1660ff16815260200190815260200160002060010160156101000a81548160ff021916908360ff16021790555060008090505b60038160ff161015611d3b5760008090505b60038160ff161015611d2d576000600160008560ff1660ff1681526020019081526020016000206004018360ff1660038110611ce957fe5b018260ff1660038110611cf857fe5b602091828204019190066101000a81548160ff02191690836002811115611d1b57fe5b02179055508080600101915050611cb1565b508080600101915050611c9f565b505b50565b600080600090505b60038160ff161015611daa5760006002811115611d6157fe5b611d73848360008560018760026121c9565b6002811115611d7e57fe5b14611d9d57611d95838260008460018660026121c9565b915050611ead565b8080600101915050611d48565b5060008090505b60038160ff161015611e135760006002811115611dca57fe5b611ddc846000846001866002886121c9565b6002811115611de757fe5b14611e0657611dfe836000836001856002876121c9565b915050611ead565b8080600101915050611db1565b5060006002811115611e2157fe5b611e33836000806001806002806121c9565b6002811115611e3e57fe5b14611e5c57611e55826000806001806002806121c9565b9050611ead565b60006002811115611e6957fe5b611e7d8360006002600180600260006121c9565b6002811115611e8857fe5b14611ea857611ea18260006002600180600260006121c9565b9050611ead565b600090505b919050565b6060611ec083600084612418565b611ecc84600185612418565b611ed885600286612418565b6040516020018084805190602001908083835b60208310611f0e5780518252602082019150602081019050602083039250611eeb565b6001836020036101000a038019825116818451168082178552505050505050905001807f7c0000000000000000000000000000000000000000000000000000000000000081525060010183805190602001908083835b60208310611f875780518252602082019150602081019050602083039250611f64565b6001836020036101000a038019825116818451168082178552505050505050905001807f7c0000000000000000000000000000000000000000000000000000000000000081525060010182805190602001908083835b602083106120005780518252602082019150602081019050602083039250611fdd565b6001836020036101000a0380198251168184511680821785525050505050509050019350505050604051602081830303815290604052905092915050565b6003600160008360ff1660ff16815260200190815260200160002060010160149054906101000a900460ff1660ff16146120e0576040517f08c379a000000000000000000000000000000000000000000000000000000000815260040180806020018281038252601a8152602001807f456e7375726520746861742067616d652068617320656e64656400000000000081525060200191505060405180910390fd5b600160008260ff1660ff168152602001908152602001600020600080820160006101000a81549073ffffffffffffffffffffffffffffffffffffffff02191690556001820160006101000a81549073ffffffffffffffffffffffffffffffffffffffff02191690556001820160146101000a81549060ff02191690556001820160156101000a81549060ff021916905560028201600090556003820160006101000a81549060ff02191690556003820160016101000a81549060ff02191690556003820160026101000a81549060ff02191690556004820160006121c491906125ad565b505050565b60008060028111156121d757fe5b600160008a60ff1660ff1681526020019081526020016000206004018860ff166003811061220157fe5b018760ff166003811061221057fe5b602091828204019190069054906101000a900460ff16600281111561223157fe5b141580156122f05750600160008960ff1660ff1681526020019081526020016000206004018560ff166003811061226457fe5b018460ff166003811061227357fe5b602091828204019190069054906101000a900460ff16600281111561229457fe5b600160008a60ff1660ff1681526020019081526020016000206004018860ff16600381106122be57fe5b018760ff16600381106122cd57fe5b602091828204019190069054906101000a900460ff1660028111156122ee57fe5b145b80156123ad5750600160008960ff1660ff1681526020019081526020016000206004018360ff166003811061232157fe5b018260ff166003811061233057fe5b602091828204019190069054906101000a900460ff16600281111561235157fe5b600160008a60ff1660ff1681526020019081526020016000206004018660ff166003811061237b57fe5b018560ff166003811061238a57fe5b602091828204019190069054906101000a900460ff1660028111156123ab57fe5b145b1561240857600160008960ff1660ff1681526020019081526020016000206004018760ff16600381106123dc57fe5b018660ff16600381106123eb57fe5b602091828204019190069054906101000a900460ff16905061240d565b600090505b979650505050505050565b60606001600281111561242757fe5b600160008660ff1660ff1681526020019081526020016000206004018460ff166003811061245157fe5b018360ff166003811061246057fe5b602091828204019190069054906101000a900460ff16600281111561248157fe5b14156124c4576040518060400160405280600181526020017f580000000000000000000000000000000000000000000000000000000000000081525090506125a6565b6002808111156124d057fe5b600160008660ff1660ff1681526020019081526020016000206004018460ff16600381106124fa57fe5b018360ff166003811061250957fe5b602091828204019190069054906101000a900460ff16600281111561252a57fe5b141561256d576040518060400160405280600181526020017f4f0000000000000000000000000000000000000000000000000000000000000081525090506125a6565b6040518060400160405280600181526020017f200000000000000000000000000000000000000000000000000000000000000081525090505b9392505050565b50600081816125bc91906125e0565b50600101600081816125ce91906125e0565b5060010160006125de91906125e0565b565b506000905556fe4d616b696e672073757265207468617420686f7374206973206e6f7420747279696e6720746f20706c617920776974682068696d73656c6642616c616e63652073686f756c642062652067726561746572207468616e20302e20576f6e277420636f6d6520686572654f776e6572206f6620636f6e74726163742063616e27742074616b65207061727420696e207468652067616d65506c617965722063616e206f6e6c79206a6f696e20616e206578697374696e672067616d652e2057726f6e672049445468697320626f61726420706f736974696f6e20697320616c72656164792066696c6c6564456e73757265207468617420706f736974696f6e20697320696e736964652074686520626f6172644f6e6c792074686520686f737420616e64206a6f696e65722063616e20706c617920746869732067616d65a265627a7a7231582012a7796dcd0dc794eeb6abdc577b60c26b7f803e1291ec355f4a190bc5faf2bd64736f6c634300050c0032",
  "source": "pragma solidity >= 0.4.21 < 0.6.0;\n\ncontract TicTacToe\n{\n    // Address of the two players and the owner\n    address payable public owner;\n    enum states {E, X, O}\n\n    struct Game\n    {\n        address payable host;\n        address payable joiner;\n        uint8 state;\n        uint8 current_move;\n        uint balance;\n        uint8 match_count;\n        uint8 host_win;\n        uint8 joiner_win;\n        states[3][3] board;\n    }\n\n    mapping(uint8 => Game) public games;\n\n    constructor()\n        public\n    {\n        owner = msg.sender;\n    }\n\n    // Simple State Machine\n    // State 0: Game is not initialise\n    // State 1: Host has joined\n    // State 2: Challenger has joined\n    // State 3: Game Over\n\n    function create(uint8 id)\n        public\n        payable\n    {\n        require(games[id].state == 0, \"Game ID already exists\");\n        require(msg.value >= 1, \"Send a minimum of 1 Wei\");\n        require(msg.sender != owner, \"Owner of contract can't take part in the game\");\n\n        games[id].host = msg.sender;\n        games[id].balance = msg.value;\n        games[id].state = 1;\n    }\n\n    function join(uint8 id)\n        public\n        payable\n    {\n        require(games[id].state == 1, \"Player can only join an existing game. Wrong ID\");\n        require(msg.value >= 1, \"Send a minimum of 1 Wei\");\n        require(owner != msg.sender, \"Owner of contract can't take part in the game\");\n        require(games[id].host != msg.sender, \"Making sure that host is not trying to play with himself\");\n\n        games[id].joiner = msg.sender;\n        games[id].balance += msg.value;\n        games[id].state = 2;\n    }\n\n    // Checks to be performed before the transaction is allowed to make a change to the board\n    // - Make sure the host and Challenger have joined the game\n    // - The sender is a player of the game\n    // - The game is not over and it is their turn\n    // - The arguments are within bounds of the board\n    // - If the specified block on the board is empty\n    function MakeMove(uint8 id, uint8 y, uint8 x)\n        public\n    {\n        require (games[id].state == 2, \"Player has not joined the game\");\n        require (msg.sender == games[id].host || msg.sender == games[id].joiner, \"Only the host and joiner can play this game\");\n        require (!isMatchOver(id), \"Won't come here\");\n        require (msg.sender == currentPlayerAddress(id), \"Please wait for your turn\");\n        require (positionCheck(x, y), \"Ensure that position is inside the board\");\n        require (games[id].board[x][y] == states.E, \"This board position is already filled\");\n\n        if(currentPlayerAddress(id) == games[id].joiner)\n            games[id].board[x][y] = states.X;\n        else\n            games[id].board[x][y] = states.O;\n\n        games[id].current_move = games[id].current_move + 1;\n\n        if(isMatchOver(id))\n        {\n            games[id].state = 3;\n            endGame(id);\n        }\n    }\n\n    // Utility function to make sure we never check positions outside the board\n    function positionCheck(uint8 xpos, uint8 ypos)\n        private\n        pure\n        returns (bool)\n    {\n        return (xpos >= 0 && xpos < 3 && ypos >= 0 && ypos < 3);\n    }\n\n    // Match 1 & 3: Joiner plays first\n    // Match 2 & 4: Host plays first\n    function currentPlayerAddress(uint8 id)\n        public\n        view\n        returns (address)\n    {\n        if ((games[id].current_move + games[id].match_count) % 2 == 0)\n            return games[id].joiner;\n        else\n            return games[id].host;\n    }\n\n    // Game is over when 9 moves have been made or when one of the player wins\n    function isMatchOver(uint8 id)\n        public\n        view\n        returns (bool)\n    {\n        require(games[id].state == 2, \"Ensure that match has completed\");\n        return (games[id].current_move > 8 || winningPlayerShape(id) != states.E);\n    }\n\n    // After the game is over, send the money to the winner\n    function endGame(uint8 id)\n        private\n    {\n        require(games[id].state == 3, \"Ensure that the game ended\");\n        require(games[id].balance > 0, \"Balance should be greater than 0. Won't come here\");\n\n        if (winner(id) == games[id].host)\n            games[id].host_win = games[id].host_win + 1;\n        else if(winner(id) == games[id].joiner)\n            games[id].joiner_win = games[id].joiner_win + 1;\n\n        games[id].match_count = games[id].match_count + 1;\n\n        if(games[id].match_count == 4)\n        {\n            if( games[id].joiner_win == games[id].host_win)\n                owner.transfer(games[id].balance);\n            else if(games[id].joiner_win > games[id].host_win)\n                games[id].joiner.transfer(games[id].balance);\n            else if(games[id].host_win > games[id].joiner_win)\n                games[id].host.transfer(games[id].balance);\n            reset(id);\n        }\n        else\n        {\n            games[id].state = 2;\n            games[id].current_move = 0;\n            for(uint8 r = 0; r < 3; r++)\n            {\n                for(uint8 s = 0; s < 3; s++)\n                {\n                    games[id].board[r][s] = states.E;\n                }\n            }\n        }\n    }\n\n    // We have to make sure that the money has been transferred to the winner or the owner\n    function reset(uint8 id)\n        private\n    {\n        require(games[id].state == 3, \"Ensure that game has ended\");\n        delete games[id];\n    }\n\n    // Utility function\n    function check(uint8 id, uint8 r1, uint8 c1, uint8 r2, uint8 c2, uint8 r3, uint8 c3)\n        private\n        view\n        returns (states)\n    {\n        if(games[id].board[r1][c1] != states.E &&\n            games[id].board[r1][c1] == games[id].board[r2][c2] &&\n            games[id].board[r2][c2] == games[id].board[r3][c3])\n            return games[id].board[r1][c1];\n        else\n            return states.E;\n    }\n\n    // Function to check if the board has a winner and returns the winning shape\n    function winningPlayerShape(uint8 id)\n        private\n        view\n        returns (states)\n    {\n        // Check rows\n        for(uint8 r = 0; r < 3; r++) {\n            if(check(id, r, 0, r, 1, r, 2) != states.E)\n                return check(id, r, 0, r, 1, r, 2);\n        }\n\n        // Check coloumns\n        for(uint8 r = 0; r < 3; r++) {\n            if(check(id, 0, r, 1, r, 2, r) != states.E)\n                return check(id, 0, r, 1, r, 2, r);\n        }\n\n        // Check diagonals\n\n        if(check(id, 0, 0, 1, 1, 2, 2) != states.E)\n            return check(id, 0, 0, 1, 1, 2, 2);\n        if(check(id, 0, 2, 1, 1, 2, 0) != states.E)\n            return check(id, 0, 2, 1, 1, 2, 0);\n\n        return states.E;\n    }\n\n    // Function for the outside world to see who the winner is\n    function winner(uint8 id)\n        public\n        view\n        returns (address payable)\n    {\n        states winning_shape = winningPlayerShape(id);\n        if(winning_shape == states.X) {\n            return games[id].joiner;\n        }\n        else if(winning_shape == states.O) {\n            return games[id].host;\n        }\n        return address(0);\n    }\n\n    // Drawing the board\n    function stateToString(uint8 id)\n        public\n        view\n        returns (string memory)\n    {\n        return string(\n            abi.encodePacked(\n            colToString(id, 0), \"|\",\n            colToString(id, 1), \"|\",\n            colToString(id, 2)\n        ));\n    }\n\n    function colToString(uint8 id, uint8 pos)\n        private\n        view\n        returns (string memory)\n    {\n        return string(abi.encodePacked(squareToString(id, 0, pos), \"|\", squareToString(id, 1, pos), \"|\", squareToString(id, 2, pos)));\n    }\n\n    function squareToString(uint8 id, uint8 xpos, uint8 ypos)\n        private\n        view\n        returns (string memory)\n    {\n        if (games[id].board[xpos][ypos] == states.X)\n            return \"X\";\n        else if (games[id].board[xpos][ypos] == states.O)\n            return \"O\";\n        return \" \";\n    }\n}",
  "sourcePath": "/home/tyrion/Git/Blockchain/contracts/TicTacToe.sol",
  "compiler": {
    "name": "solc",
    "version": "0.5.12+commit.7709ece9.Emscripten.clang"
  },
  "schemaVersion": "3.0.19",
  "updatedAt": "2019-11-16T14:14:20.125Z",
  "networkType": "ethereum",
  "devdoc": {
    "methods": {}
  },
  "userdoc": {
    "methods": {}
  }
}