{
  "contractName": "TicTacToe",
  "abi": [
    {
      "inputs": [],
      "payable": false,
      "stateMutability": "nonpayable",
      "type": "constructor"
    },
    {
      "constant": true,
      "inputs": [
        {
          "internalType": "uint8",
          "name": "",
          "type": "uint8"
        }
      ],
      "name": "games",
      "outputs": [
        {
          "internalType": "address payable",
          "name": "host",
          "type": "address"
        },
        {
          "internalType": "address payable",
          "name": "joiner",
          "type": "address"
        },
        {
          "internalType": "uint8",
          "name": "state",
          "type": "uint8"
        },
        {
          "internalType": "uint8",
          "name": "current_move",
          "type": "uint8"
        },
        {
          "internalType": "uint256",
          "name": "balance",
          "type": "uint256"
        },
        {
          "internalType": "uint8",
          "name": "match_count",
          "type": "uint8"
        },
        {
          "internalType": "uint8",
          "name": "host_win",
          "type": "uint8"
        },
        {
          "internalType": "uint8",
          "name": "joiner_win",
          "type": "uint8"
        }
      ],
      "payable": false,
      "stateMutability": "view",
      "type": "function"
    },
    {
      "constant": true,
      "inputs": [],
      "name": "owner",
      "outputs": [
        {
          "internalType": "address payable",
          "name": "",
          "type": "address"
        }
      ],
      "payable": false,
      "stateMutability": "view",
      "type": "function"
    },
    {
      "constant": false,
      "inputs": [
        {
          "internalType": "uint8",
          "name": "id",
          "type": "uint8"
        }
      ],
      "name": "create",
      "outputs": [],
      "payable": true,
      "stateMutability": "payable",
      "type": "function"
    },
    {
      "constant": false,
      "inputs": [
        {
          "internalType": "uint8",
          "name": "id",
          "type": "uint8"
        }
      ],
      "name": "join",
      "outputs": [],
      "payable": true,
      "stateMutability": "payable",
      "type": "function"
    },
    {
      "constant": false,
      "inputs": [
        {
          "internalType": "uint8",
          "name": "id",
          "type": "uint8"
        },
        {
          "internalType": "uint8",
          "name": "y",
          "type": "uint8"
        },
        {
          "internalType": "uint8",
          "name": "x",
          "type": "uint8"
        }
      ],
      "name": "makeMove",
      "outputs": [],
      "payable": false,
      "stateMutability": "nonpayable",
      "type": "function"
    },
    {
      "constant": true,
      "inputs": [
        {
          "internalType": "uint8",
          "name": "id",
          "type": "uint8"
        }
      ],
      "name": "currentPlayerAddress",
      "outputs": [
        {
          "internalType": "address",
          "name": "",
          "type": "address"
        }
      ],
      "payable": false,
      "stateMutability": "view",
      "type": "function"
    },
    {
      "constant": true,
      "inputs": [
        {
          "internalType": "uint8",
          "name": "id",
          "type": "uint8"
        }
      ],
      "name": "isMatchOver",
      "outputs": [
        {
          "internalType": "bool",
          "name": "",
          "type": "bool"
        }
      ],
      "payable": false,
      "stateMutability": "view",
      "type": "function"
    },
    {
      "constant": true,
      "inputs": [
        {
          "internalType": "uint8",
          "name": "id",
          "type": "uint8"
        }
      ],
      "name": "stateToString",
      "outputs": [
        {
          "internalType": "string",
          "name": "",
          "type": "string"
        }
      ],
      "payable": false,
      "stateMutability": "view",
      "type": "function"
    }
  ],
  "bytecode": "0x608060405234801561001057600080fd5b50336000806101000a81548173ffffffffffffffffffffffffffffffffffffffff021916908373ffffffffffffffffffffffffffffffffffffffff160217905550612933806100606000396000f3fe60806040526004361061007b5760003560e01c80639881ae841161004e5780639881ae84146102a6578063c37d9044146102fc578063cb3e9b841461032d578063d15e98ee1461035e5761007b565b80630fad2a5b14610080578063510ae150146101795780638da5cb5b146101f7578063960edffb1461024e575b600080fd5b34801561008c57600080fd5b506100bc600480360360208110156100a357600080fd5b81019080803560ff169060200190929190505050610415565b604051808973ffffffffffffffffffffffffffffffffffffffff1673ffffffffffffffffffffffffffffffffffffffff1681526020018873ffffffffffffffffffffffffffffffffffffffff1673ffffffffffffffffffffffffffffffffffffffff1681526020018760ff1660ff1681526020018660ff1660ff1681526020018581526020018460ff1660ff1681526020018360ff1660ff1681526020018260ff1660ff1681526020019850505050505050505060405180910390f35b34801561018557600080fd5b506101b56004803603602081101561019c57600080fd5b81019080803560ff1690602001909291905050506104de565b604051808273ffffffffffffffffffffffffffffffffffffffff1673ffffffffffffffffffffffffffffffffffffffff16815260200191505060405180910390f35b34801561020357600080fd5b5061020c6105d5565b604051808273ffffffffffffffffffffffffffffffffffffffff1673ffffffffffffffffffffffffffffffffffffffff16815260200191505060405180910390f35b34801561025a57600080fd5b506102a46004803603606081101561027157600080fd5b81019080803560ff169060200190929190803560ff169060200190929190803560ff1690602001909291905050506105fa565b005b3480156102b257600080fd5b506102e2600480360360208110156102c957600080fd5b81019080803560ff169060200190929190505050610d5a565b604051808215151515815260200191505060405180910390f35b61032b6004803603602081101561031257600080fd5b81019080803560ff169060200190929190505050610e5f565b005b61035c6004803603602081101561034357600080fd5b81019080803560ff1690602001909291905050506110d2565b005b34801561036a57600080fd5b5061039a6004803603602081101561038157600080fd5b81019080803560ff1690602001909291905050506113f2565b6040518080602001828103825283818151815260200191508051906020019080838360005b838110156103da5780820151818401526020810190506103bf565b50505050905090810190601f1680156104075780820380516001836020036101000a031916815260200191505b509250505060405180910390f35b60016020528060005260406000206000915090508060000160009054906101000a900473ffffffffffffffffffffffffffffffffffffffff16908060010160009054906101000a900473ffffffffffffffffffffffffffffffffffffffff16908060010160149054906101000a900460ff16908060010160159054906101000a900460ff16908060020154908060030160009054906101000a900460ff16908060030160019054906101000a900460ff16908060030160029054906101000a900460ff16905088565b6000806002600160008560ff1660ff16815260200190815260200160002060030160009054906101000a900460ff16600160008660ff1660ff16815260200190815260200160002060010160159054906101000a900460ff160160ff168161054257fe5b0660ff16141561059057600160008360ff1660ff16815260200190815260200160002060010160009054906101000a900473ffffffffffffffffffffffffffffffffffffffff1690506105d0565b600160008360ff1660ff16815260200190815260200160002060000160009054906101000a900473ffffffffffffffffffffffffffffffffffffffff1690505b919050565b6000809054906101000a900473ffffffffffffffffffffffffffffffffffffffff1681565b6002600160008560ff1660ff16815260200190815260200160002060010160149054906101000a900460ff1660ff161461069c576040517f08c379a000000000000000000000000000000000000000000000000000000000815260040180806020018281038252601e8152602001807f506c6179657220686173206e6f74206a6f696e6564207468652067616d65000081525060200191505060405180910390fd5b600160008460ff1660ff16815260200190815260200160002060000160009054906101000a900473ffffffffffffffffffffffffffffffffffffffff1673ffffffffffffffffffffffffffffffffffffffff163373ffffffffffffffffffffffffffffffffffffffff1614806107795750600160008460ff1660ff16815260200190815260200160002060010160009054906101000a900473ffffffffffffffffffffffffffffffffffffffff1673ffffffffffffffffffffffffffffffffffffffff163373ffffffffffffffffffffffffffffffffffffffff16145b6107ce576040517f08c379a000000000000000000000000000000000000000000000000000000000815260040180806020018281038252602b8152602001806128d4602b913960400191505060405180910390fd5b6107d783610d5a565b1561084a576040517f08c379a000000000000000000000000000000000000000000000000000000000815260040180806020018281038252600f8152602001807f576f6e277420636f6d652068657265000000000000000000000000000000000081525060200191505060405180910390fd5b610853836104de565b73ffffffffffffffffffffffffffffffffffffffff163373ffffffffffffffffffffffffffffffffffffffff16146108f3576040517f08c379a00000000000000000000000000000000000000000000000000000000081526004018080602001828103825260198152602001807f506c65617365207761697420666f7220796f7572207475726e0000000000000081525060200191505060405180910390fd5b6108fd818361157a565b610952576040517f08c379a00000000000000000000000000000000000000000000000000000000081526004018080602001828103825260288152602001806128ac6028913960400191505060405180910390fd5b6000600281111561095f57fe5b600160008560ff1660ff1681526020019081526020016000206004018260ff166003811061098957fe5b018360ff166003811061099857fe5b602091828204019190069054906101000a900460ff1660028111156109b957fe5b14610a0f576040517f08c379a00000000000000000000000000000000000000000000000000000000081526004018080602001828103825260258152602001806128876025913960400191505060405180910390fd5b600160008460ff1660ff16815260200190815260200160002060010160009054906101000a900473ffffffffffffffffffffffffffffffffffffffff1673ffffffffffffffffffffffffffffffffffffffff16610a6b846104de565b73ffffffffffffffffffffffffffffffffffffffff161415610b995760016002600160008660ff1660ff16815260200190815260200160002060030160009054906101000a900460ff1660ff1681610abf57fe5b0660ff161415610b31576002600160008560ff1660ff1681526020019081526020016000206004018260ff1660038110610af557fe5b018360ff1660038110610b0457fe5b602091828204019190066101000a81548160ff02191690836002811115610b2757fe5b0217905550610b94565b60018060008560ff1660ff1681526020019081526020016000206004018260ff1660038110610b5c57fe5b018360ff1660038110610b6b57fe5b602091828204019190066101000a81548160ff02191690836002811115610b8e57fe5b02179055505b610ca7565b60006002600160008660ff1660ff16815260200190815260200160002060030160009054906101000a900460ff1660ff1681610bd157fe5b0660ff161415610c43576002600160008560ff1660ff1681526020019081526020016000206004018260ff1660038110610c0757fe5b018360ff1660038110610c1657fe5b602091828204019190066101000a81548160ff02191690836002811115610c3957fe5b0217905550610ca6565b60018060008560ff1660ff1681526020019081526020016000206004018260ff1660038110610c6e57fe5b018360ff1660038110610c7d57fe5b602091828204019190066101000a81548160ff02191690836002811115610ca057fe5b02179055505b5b60018060008560ff1660ff16815260200190815260200160002060010160159054906101000a900460ff1601600160008560ff1660ff16815260200190815260200160002060010160156101000a81548160ff021916908360ff160217905550610d1083610d5a565b15610d55576003600160008560ff1660ff16815260200190815260200160002060010160146101000a81548160ff021916908360ff160217905550610d54836115b9565b5b505050565b60006002600160008460ff1660ff16815260200190815260200160002060010160149054906101000a900460ff1660ff1614610dfe576040517f08c379a000000000000000000000000000000000000000000000000000000000815260040180806020018281038252601f8152602001807f456e737572652074686174206d617463682068617320636f6d706c657465640081525060200191505060405180910390fd5b6008600160008460ff1660ff16815260200190815260200160002060010160159054906101000a900460ff1660ff161180610e58575060006002811115610e4157fe5b610e4a83611d2b565b6002811115610e5557fe5b14155b9050919050565b6000600160008360ff1660ff16815260200190815260200160002060010160149054906101000a900460ff1660ff1614610f01576040517f08c379a00000000000000000000000000000000000000000000000000000000081526004018080602001828103825260168152602001807f47616d6520494420616c7265616479206578697374730000000000000000000081525060200191505060405180910390fd5b6001341015610f78576040517f08c379a00000000000000000000000000000000000000000000000000000000081526004018080602001828103825260178152602001807f53656e642061206d696e696d756d206f6620312057656900000000000000000081525060200191505060405180910390fd5b6000809054906101000a900473ffffffffffffffffffffffffffffffffffffffff1673ffffffffffffffffffffffffffffffffffffffff163373ffffffffffffffffffffffffffffffffffffffff16141561101e576040517f08c379a000000000000000000000000000000000000000000000000000000000815260040180806020018281038252602d81526020018061282b602d913960400191505060405180910390fd5b33600160008360ff1660ff16815260200190815260200160002060000160006101000a81548173ffffffffffffffffffffffffffffffffffffffff021916908373ffffffffffffffffffffffffffffffffffffffff16021790555034600160008360ff1660ff1681526020019081526020016000206002018190555060018060008360ff1660ff16815260200190815260200160002060010160146101000a81548160ff021916908360ff16021790555050565b60018060008360ff1660ff16815260200190815260200160002060010160149054906101000a900460ff1660ff1614611156576040517f08c379a000000000000000000000000000000000000000000000000000000000815260040180806020018281038252602f815260200180612858602f913960400191505060405180910390fd5b60013410156111cd576040517f08c379a00000000000000000000000000000000000000000000000000000000081526004018080602001828103825260178152602001807f53656e642061206d696e696d756d206f6620312057656900000000000000000081525060200191505060405180910390fd5b3373ffffffffffffffffffffffffffffffffffffffff166000809054906101000a900473ffffffffffffffffffffffffffffffffffffffff1673ffffffffffffffffffffffffffffffffffffffff161415611273576040517f08c379a000000000000000000000000000000000000000000000000000000000815260040180806020018281038252602d81526020018061282b602d913960400191505060405180910390fd5b3373ffffffffffffffffffffffffffffffffffffffff16600160008360ff1660ff16815260200190815260200160002060000160009054906101000a900473ffffffffffffffffffffffffffffffffffffffff1673ffffffffffffffffffffffffffffffffffffffff161415611334576040517f08c379a00000000000000000000000000000000000000000000000000000000081526004018080602001828103825260388152602001806127c26038913960400191505060405180910390fd5b33600160008360ff1660ff16815260200190815260200160002060010160006101000a81548173ffffffffffffffffffffffffffffffffffffffff021916908373ffffffffffffffffffffffffffffffffffffffff16021790555034600160008360ff1660ff168152602001908152602001600020600201600082825401925050819055506002600160008360ff1660ff16815260200190815260200160002060010160146101000a81548160ff021916908360ff16021790555050565b60606113ff826000611e9d565b61140a836001611e9d565b611415846002611e9d565b6040516020018084805190602001908083835b6020831061144b5780518252602082019150602081019050602083039250611428565b6001836020036101000a038019825116818451168082178552505050505050905001807f7c0000000000000000000000000000000000000000000000000000000000000081525060010183805190602001908083835b602083106114c457805182526020820191506020810190506020830392506114a1565b6001836020036101000a038019825116818451168082178552505050505050905001807f7c0000000000000000000000000000000000000000000000000000000000000081525060010182805190602001908083835b6020831061153d578051825260208201915060208101905060208303925061151a565b6001836020036101000a03801982511681845116808217855250505050505090500193505050506040516020818303038152906040529050919050565b6000808360ff1610158015611592575060038360ff16105b80156115a2575060008260ff1610155b80156115b1575060038260ff16105b905092915050565b6003600160008360ff1660ff16815260200190815260200160002060010160149054906101000a900460ff1660ff161461165b576040517f08c379a000000000000000000000000000000000000000000000000000000000815260040180806020018281038252601a8152602001807f456e737572652074686174207468652067616d6520656e64656400000000000081525060200191505060405180910390fd5b6000600160008360ff1660ff16815260200190815260200160002060020154116116d0576040517f08c379a00000000000000000000000000000000000000000000000000000000081526004018080602001828103825260318152602001806127fa6031913960400191505060405180910390fd5b600160008260ff1660ff16815260200190815260200160002060000160009054906101000a900473ffffffffffffffffffffffffffffffffffffffff1673ffffffffffffffffffffffffffffffffffffffff1661172c82612029565b73ffffffffffffffffffffffffffffffffffffffff1614156117ad5760018060008360ff1660ff16815260200190815260200160002060030160019054906101000a900460ff1601600160008360ff1660ff16815260200190815260200160002060030160016101000a81548160ff021916908360ff160217905550611887565b600160008260ff1660ff16815260200190815260200160002060010160009054906101000a900473ffffffffffffffffffffffffffffffffffffffff1673ffffffffffffffffffffffffffffffffffffffff1661180982612029565b73ffffffffffffffffffffffffffffffffffffffff1614156118865760018060008360ff1660ff16815260200190815260200160002060030160029054906101000a900460ff1601600160008360ff1660ff16815260200190815260200160002060030160026101000a81548160ff021916908360ff1602179055505b5b60018060008360ff1660ff16815260200190815260200160002060030160009054906101000a900460ff1601600160008360ff1660ff16815260200190815260200160002060030160006101000a81548160ff021916908360ff16021790555060018060008360ff1660ff16815260200190815260200160002060030160009054906101000a900460ff1660ff161415611c1857600160008260ff1660ff16815260200190815260200160002060030160019054906101000a900460ff1660ff16600160008360ff1660ff16815260200190815260200160002060030160029054906101000a900460ff1660ff161415611a04576000809054906101000a900473ffffffffffffffffffffffffffffffffffffffff1673ffffffffffffffffffffffffffffffffffffffff166108fc600160008460ff1660ff168152602001908152602001600020600201549081150290604051600060405180830381858888f193505050501580156119fe573d6000803e3d6000fd5b50611c0a565b600160008260ff1660ff16815260200190815260200160002060030160019054906101000a900460ff1660ff16600160008360ff1660ff16815260200190815260200160002060030160029054906101000a900460ff1660ff161115611b0857600160008260ff1660ff16815260200190815260200160002060010160009054906101000a900473ffffffffffffffffffffffffffffffffffffffff1673ffffffffffffffffffffffffffffffffffffffff166108fc600160008460ff1660ff168152602001908152602001600020600201549081150290604051600060405180830381858888f19350505050158015611b02573d6000803e3d6000fd5b50611c09565b600160008260ff1660ff16815260200190815260200160002060030160029054906101000a900460ff1660ff16600160008360ff1660ff16815260200190815260200160002060030160019054906101000a900460ff1660ff161115611c0857600160008260ff1660ff16815260200190815260200160002060000160009054906101000a900473ffffffffffffffffffffffffffffffffffffffff1673ffffffffffffffffffffffffffffffffffffffff166108fc600160008460ff1660ff168152602001908152602001600020600201549081150290604051600060405180830381858888f19350505050158015611c06573d6000803e3d6000fd5b505b5b5b611c1381612218565b611d28565b6002600160008360ff1660ff16815260200190815260200160002060010160146101000a81548160ff021916908360ff1602179055506000600160008360ff1660ff16815260200190815260200160002060010160156101000a81548160ff021916908360ff16021790555060008090505b60038160ff161015611d265760008090505b60038160ff161015611d18576000600160008560ff1660ff1681526020019081526020016000206004018360ff1660038110611cd457fe5b018260ff1660038110611ce357fe5b602091828204019190066101000a81548160ff02191690836002811115611d0657fe5b02179055508080600101915050611c9c565b508080600101915050611c8a565b505b50565b600080600090505b60038160ff161015611d955760006002811115611d4c57fe5b611d5e848360008560018760026123a3565b6002811115611d6957fe5b14611d8857611d80838260008460018660026123a3565b915050611e98565b8080600101915050611d33565b5060008090505b60038160ff161015611dfe5760006002811115611db557fe5b611dc7846000846001866002886123a3565b6002811115611dd257fe5b14611df157611de9836000836001856002876123a3565b915050611e98565b8080600101915050611d9c565b5060006002811115611e0c57fe5b611e1e836000806001806002806123a3565b6002811115611e2957fe5b14611e4757611e40826000806001806002806123a3565b9050611e98565b60006002811115611e5457fe5b611e688360006002600180600260006123a3565b6002811115611e7357fe5b14611e9357611e8c8260006002600180600260006123a3565b9050611e98565b600090505b919050565b6060611eab836000846125f2565b611eb7846001856125f2565b611ec3856002866125f2565b6040516020018084805190602001908083835b60208310611ef95780518252602082019150602081019050602083039250611ed6565b6001836020036101000a038019825116818451168082178552505050505050905001807f7c0000000000000000000000000000000000000000000000000000000000000081525060010183805190602001908083835b60208310611f725780518252602082019150602081019050602083039250611f4f565b6001836020036101000a038019825116818451168082178552505050505050905001807f7c0000000000000000000000000000000000000000000000000000000000000081525060010182805190602001908083835b60208310611feb5780518252602082019150602081019050602083039250611fc8565b6001836020036101000a0380198251168184511680821785525050505050509050019350505050604051602081830303815290604052905092915050565b60008061203583611d2b565b905060006002600160008660ff1660ff16815260200190815260200160002060030160009054906101000a900460ff1660ff168161206f57fe5b0660ff161415612145576001600281111561208657fe5b81600281111561209257fe5b14156120dd57600160008460ff1660ff16815260200190815260200160002060010160009054906101000a900473ffffffffffffffffffffffffffffffffffffffff16915050612213565b6002808111156120e957fe5b8160028111156120f557fe5b141561214057600160008460ff1660ff16815260200190815260200160002060000160009054906101000a900473ffffffffffffffffffffffffffffffffffffffff16915050612213565b61220d565b60028081111561215157fe5b81600281111561215d57fe5b14156121a857600160008460ff1660ff16815260200190815260200160002060010160009054906101000a900473ffffffffffffffffffffffffffffffffffffffff16915050612213565b600160028111156121b557fe5b8160028111156121c157fe5b141561220c57600160008460ff1660ff16815260200190815260200160002060000160009054906101000a900473ffffffffffffffffffffffffffffffffffffffff16915050612213565b5b60009150505b919050565b6003600160008360ff1660ff16815260200190815260200160002060010160149054906101000a900460ff1660ff16146122ba576040517f08c379a000000000000000000000000000000000000000000000000000000000815260040180806020018281038252601a8152602001807f456e7375726520746861742067616d652068617320656e64656400000000000081525060200191505060405180910390fd5b600160008260ff1660ff168152602001908152602001600020600080820160006101000a81549073ffffffffffffffffffffffffffffffffffffffff02191690556001820160006101000a81549073ffffffffffffffffffffffffffffffffffffffff02191690556001820160146101000a81549060ff02191690556001820160156101000a81549060ff021916905560028201600090556003820160006101000a81549060ff02191690556003820160016101000a81549060ff02191690556003820160026101000a81549060ff021916905560048201600061239e9190612787565b505050565b60008060028111156123b157fe5b600160008a60ff1660ff1681526020019081526020016000206004018860ff16600381106123db57fe5b018760ff16600381106123ea57fe5b602091828204019190069054906101000a900460ff16600281111561240b57fe5b141580156124ca5750600160008960ff1660ff1681526020019081526020016000206004018560ff166003811061243e57fe5b018460ff166003811061244d57fe5b602091828204019190069054906101000a900460ff16600281111561246e57fe5b600160008a60ff1660ff1681526020019081526020016000206004018860ff166003811061249857fe5b018760ff16600381106124a757fe5b602091828204019190069054906101000a900460ff1660028111156124c857fe5b145b80156125875750600160008960ff1660ff1681526020019081526020016000206004018360ff16600381106124fb57fe5b018260ff166003811061250a57fe5b602091828204019190069054906101000a900460ff16600281111561252b57fe5b600160008a60ff1660ff1681526020019081526020016000206004018660ff166003811061255557fe5b018560ff166003811061256457fe5b602091828204019190069054906101000a900460ff16600281111561258557fe5b145b156125e257600160008960ff1660ff1681526020019081526020016000206004018760ff16600381106125b657fe5b018660ff16600381106125c557fe5b602091828204019190069054906101000a900460ff1690506125e7565b600090505b979650505050505050565b60606001600281111561260157fe5b600160008660ff1660ff1681526020019081526020016000206004018460ff166003811061262b57fe5b018360ff166003811061263a57fe5b602091828204019190069054906101000a900460ff16600281111561265b57fe5b141561269e576040518060400160405280600181526020017f58000000000000000000000000000000000000000000000000000000000000008152509050612780565b6002808111156126aa57fe5b600160008660ff1660ff1681526020019081526020016000206004018460ff16600381106126d457fe5b018360ff16600381106126e357fe5b602091828204019190069054906101000a900460ff16600281111561270457fe5b1415612747576040518060400160405280600181526020017f4f000000000000000000000000000000000000000000000000000000000000008152509050612780565b6040518060400160405280600181526020017f200000000000000000000000000000000000000000000000000000000000000081525090505b9392505050565b506000818161279691906127ba565b50600101600081816127a891906127ba565b5060010160006127b891906127ba565b565b506000905556fe4d616b696e672073757265207468617420686f7374206973206e6f7420747279696e6720746f20706c617920776974682068696d73656c6642616c616e63652073686f756c642062652067726561746572207468616e20302e20576f6e277420636f6d6520686572654f776e6572206f6620636f6e74726163742063616e27742074616b65207061727420696e207468652067616d65506c617965722063616e206f6e6c79206a6f696e20616e206578697374696e672067616d652e2057726f6e672049445468697320626f61726420706f736974696f6e20697320616c72656164792066696c6c6564456e73757265207468617420706f736974696f6e20697320696e736964652074686520626f6172644f6e6c792074686520686f737420616e64206a6f696e65722063616e20706c617920746869732067616d65a265627a7a7231582085b58d50182d57ff88ee660341c3962ba4eb77d4b4fe01754dc22189972e2f1364736f6c634300050c0032",
  "source": "pragma solidity >= 0.4.21 < 0.6.0;\n\ncontract TicTacToe\n{\n    // Address of the two players and the owner\n    address payable public owner;\n    enum states {E, X, O}\n\n    struct Game\n    {\n        address payable host;\n        address payable joiner;\n        uint8 state;\n        uint8 current_move;\n        uint balance;\n        uint8 match_count;\n        uint8 host_win;\n        uint8 joiner_win;\n        states[3][3] board;\n    }\n\n    mapping(uint8 => Game) public games;\n\n    constructor()\n        public\n    {\n        owner = msg.sender;\n    }\n\n    // Simple State Machine\n    // State 0: Game is not initialise\n    // State 1: Host has joined\n    // State 2: Challenger has joined\n    // State 3: Game Over\n\n    function create(uint8 id)\n        public\n        payable\n    {\n        require(games[id].state == 0, \"Game ID already exists\");\n        require(msg.value >= 1, \"Send a minimum of 1 Wei\");\n        require(msg.sender != owner, \"Owner of contract can't take part in the game\");\n\n        games[id].host = msg.sender;\n        games[id].balance = msg.value;\n        games[id].state = 1;\n    }\n\n    function join(uint8 id)\n        public\n        payable\n    {\n        require(games[id].state == 1, \"Player can only join an existing game. Wrong ID\");\n        require(msg.value >= 1, \"Send a minimum of 1 Wei\");\n        require(owner != msg.sender, \"Owner of contract can't take part in the game\");\n        require(games[id].host != msg.sender, \"Making sure that host is not trying to play with himself\");\n\n        games[id].joiner = msg.sender;\n        games[id].balance += msg.value;\n        games[id].state = 2;\n    }\n\n    // Checks to be performed before the transaction is allowed to make a change to the board\n    // - Make sure the host and Challenger have joined the game\n    // - The sender is a player of the game\n    // - The game is not over and it is their turn\n    // - The arguments are within bounds of the board\n    // - If the specified block on the board is empty\n    function makeMove(uint8 id, uint8 y, uint8 x)\n        public\n    {\n        require (games[id].state == 2, \"Player has not joined the game\");\n        require (msg.sender == games[id].host || msg.sender == games[id].joiner, \"Only the host and joiner can play this game\");\n        require (!isMatchOver(id), \"Won't come here\");\n        require (msg.sender == currentPlayerAddress(id), \"Please wait for your turn\");\n        require (positionCheck(x, y), \"Ensure that position is inside the board\");\n        require (games[id].board[x][y] == states.E, \"This board position is already filled\");\n\n        if(currentPlayerAddress(id) == games[id].joiner)\n        {\n            if (games[id].match_count % 2 == 1)\n                games[id].board[x][y] = states.O;\n            else\n                games[id].board[x][y] = states.X;\n        }\n        else\n        {\n            if (games[id].match_count % 2 == 0)\n                games[id].board[x][y] = states.O;\n            else\n                games[id].board[x][y] = states.X;\n        }\n\n        games[id].current_move = games[id].current_move + 1;\n\n        if(isMatchOver(id))\n        {\n            games[id].state = 3;\n            endGame(id);\n        }\n    }\n\n    // Utility function to make sure we never check positions outside the board\n    function positionCheck(uint8 xpos, uint8 ypos)\n        private\n        pure\n        returns (bool)\n    {\n        return (xpos >= 0 && xpos < 3 && ypos >= 0 && ypos < 3);\n    }\n\n    // Match 1 & 3: Joiner plays first\n    // Match 2 & 4: Host plays first\n    function currentPlayerAddress(uint8 id)\n        public\n        view\n        returns (address)\n    {\n        if ((games[id].current_move + games[id].match_count) % 2 == 0)\n            return games[id].joiner;\n        else\n            return games[id].host;\n    }\n\n    // Game is over when 9 moves have been made or when one of the player wins\n    function isMatchOver(uint8 id)\n        public\n        view\n        returns (bool)\n    {\n        require(games[id].state == 2, \"Ensure that match has completed\");\n        return (games[id].current_move > 8 || winningPlayerShape(id) != states.E);\n    }\n\n    // After the game is over, send the money to the winner\n    function endGame(uint8 id)\n        private\n    {\n        require(games[id].state == 3, \"Ensure that the game ended\");\n        require(games[id].balance > 0, \"Balance should be greater than 0. Won't come here\");\n\n        if (winner(id) == games[id].host)\n            games[id].host_win = games[id].host_win + 1;\n        else if(winner(id) == games[id].joiner)\n            games[id].joiner_win = games[id].joiner_win + 1;\n\n        games[id].match_count = games[id].match_count + 1;\n\n        if(games[id].match_count == 1)\n        {\n            if( games[id].joiner_win == games[id].host_win)\n                owner.transfer(games[id].balance);\n            else if(games[id].joiner_win > games[id].host_win)\n                games[id].joiner.transfer(games[id].balance);\n            else if(games[id].host_win > games[id].joiner_win)\n                games[id].host.transfer(games[id].balance);\n            reset(id);\n        }\n        else\n        {\n            games[id].state = 2;\n            games[id].current_move = 0;\n            for(uint8 r = 0; r < 3; r++)\n            {\n                for(uint8 s = 0; s < 3; s++)\n                {\n                    games[id].board[r][s] = states.E;\n                }\n            }\n        }\n    }\n\n    // We have to make sure that the money has been transferred to the winner or the owner\n    function reset(uint8 id)\n        private\n    {\n        require(games[id].state == 3, \"Ensure that game has ended\");\n        delete games[id];\n    }\n\n    // Utility function\n    function check(uint8 id, uint8 r1, uint8 c1, uint8 r2, uint8 c2, uint8 r3, uint8 c3)\n        private\n        view\n        returns (states)\n    {\n        if(games[id].board[r1][c1] != states.E &&\n            games[id].board[r1][c1] == games[id].board[r2][c2] &&\n            games[id].board[r2][c2] == games[id].board[r3][c3])\n            return games[id].board[r1][c1];\n        else\n            return states.E;\n    }\n\n    // Function to check if the board has a winner and returns the winning shape\n    function winningPlayerShape(uint8 id)\n        private\n        view\n        returns (states)\n    {\n        // Check rows\n        for(uint8 r = 0; r < 3; r++) {\n            if(check(id, r, 0, r, 1, r, 2) != states.E)\n                return check(id, r, 0, r, 1, r, 2);\n        }\n\n        // Check coloumns\n        for(uint8 r = 0; r < 3; r++) {\n            if(check(id, 0, r, 1, r, 2, r) != states.E)\n                return check(id, 0, r, 1, r, 2, r);\n        }\n\n        // Check diagonals\n\n        if(check(id, 0, 0, 1, 1, 2, 2) != states.E)\n            return check(id, 0, 0, 1, 1, 2, 2);\n        if(check(id, 0, 2, 1, 1, 2, 0) != states.E)\n            return check(id, 0, 2, 1, 1, 2, 0);\n\n        return states.E;\n    }\n\n    // Function to get winner of current game\n    function winner(uint8 id)\n        private\n        view\n        returns (address payable)\n    {\n        states winning_shape = winningPlayerShape(id);\n        if (games[id].match_count % 2 == 0)\n        {\n            if(winning_shape == states.X)\n                return games[id].joiner;\n            else if(winning_shape == states.O)\n                return games[id].host;\n        }\n        else\n        {\n            if(winning_shape == states.O)\n                return games[id].joiner;\n            else if(winning_shape == states.X)\n                return games[id].host;\n        }\n        return address(0);\n    }\n\n    // Drawing the board\n    function stateToString(uint8 id)\n        public\n        view\n        returns (string memory)\n    {\n        return string(\n            abi.encodePacked(\n            colToString(id, 0), \"|\",\n            colToString(id, 1), \"|\",\n            colToString(id, 2)\n        ));\n    }\n\n    function colToString(uint8 id, uint8 pos)\n        private\n        view\n        returns (string memory)\n    {\n        return string(abi.encodePacked(squareToString(id, 0, pos), \"|\", squareToString(id, 1, pos), \"|\", squareToString(id, 2, pos)));\n    }\n\n    function squareToString(uint8 id, uint8 xpos, uint8 ypos)\n        private\n        view\n        returns (string memory)\n    {\n        if (games[id].board[xpos][ypos] == states.X)\n            return \"X\";\n        else if (games[id].board[xpos][ypos] == states.O)\n            return \"O\";\n        return \" \";\n    }\n}",
  "sourcePath": "/home/tyrion/Git/tictactoe-react/contracts/TicTacToe.sol",
  "compiler": {
    "name": "solc",
    "version": "0.5.12+commit.7709ece9.Emscripten.clang"
  },
  "schemaVersion": "3.0.19",
  "updatedAt": "2019-12-04T10:09:32.032Z",
  "networkType": "ethereum",
  "devdoc": {
    "methods": {}
  },
  "userdoc": {
    "methods": {}
  }
}